{
  "_format": "hh-sol-artifact-1",
  "contractName": "PlayerStats",
  "sourceName": "contracts/PlayerStats.sol",
  "abi": [
    {
      "anonymous": false,
      "inputs": [
        {
          "indexed": true,
          "internalType": "address",
          "name": "player",
          "type": "address"
        },
        {
          "indexed": true,
          "internalType": "uint256",
          "name": "player_id",
          "type": "uint256"
        }
      ],
      "name": "PlayerRegistered",
      "type": "event"
    },
    {
      "anonymous": false,
      "inputs": [
        {
          "indexed": true,
          "internalType": "uint256",
          "name": "player_id",
          "type": "uint256"
        },
        {
          "indexed": false,
          "internalType": "uint256",
          "name": "wins",
          "type": "uint256"
        },
        {
          "indexed": false,
          "internalType": "uint256",
          "name": "draws",
          "type": "uint256"
        },
        {
          "indexed": false,
          "internalType": "uint256",
          "name": "losses",
          "type": "uint256"
        }
      ],
      "name": "StatsUpdated",
      "type": "event"
    },
    {
      "inputs": [
        {
          "internalType": "uint256",
          "name": "player_id",
          "type": "uint256"
        }
      ],
      "name": "getStatsByPlayerId",
      "outputs": [
        {
          "internalType": "uint256",
          "name": "",
          "type": "uint256"
        },
        {
          "internalType": "uint256",
          "name": "",
          "type": "uint256"
        },
        {
          "internalType": "uint256",
          "name": "",
          "type": "uint256"
        },
        {
          "internalType": "uint256",
          "name": "",
          "type": "uint256"
        }
      ],
      "stateMutability": "view",
      "type": "function"
    },
    {
      "inputs": [
        {
          "internalType": "uint256",
          "name": "",
          "type": "uint256"
        }
      ],
      "name": "playerAddressById",
      "outputs": [
        {
          "internalType": "address",
          "name": "",
          "type": "address"
        }
      ],
      "stateMutability": "view",
      "type": "function"
    },
    {
      "inputs": [
        {
          "internalType": "uint256",
          "name": "player_id",
          "type": "uint256"
        }
      ],
      "name": "registerPlayer",
      "outputs": [],
      "stateMutability": "nonpayable",
      "type": "function"
    },
    {
      "inputs": [
        {
          "internalType": "uint256",
          "name": "player_id",
          "type": "uint256"
        },
        {
          "internalType": "uint256",
          "name": "wins",
          "type": "uint256"
        },
        {
          "internalType": "uint256",
          "name": "draws",
          "type": "uint256"
        },
        {
          "internalType": "uint256",
          "name": "losses",
          "type": "uint256"
        }
      ],
      "name": "updateStats",
      "outputs": [],
      "stateMutability": "nonpayable",
      "type": "function"
    }
  ],
  "bytecode": "0x6080604052348015600f57600080fd5b5061080c8061001f6000396000f3fe608060405234801561001057600080fd5b506004361061004c5760003560e01c806326dbbcc3146100515780637fc29fda1461006d578063821644e6146100a057806392eefb78146100bc575b600080fd5b61006b6004803603810190610066919061050f565b6100ec565b005b61008760048036038101906100829190610576565b610292565b60405161009794939291906105b2565b60405180910390f35b6100ba60048036038101906100b59190610576565b610305565b005b6100d660048036038101906100d19190610576565b6104a1565b6040516100e39190610638565b60405180910390f35b3373ffffffffffffffffffffffffffffffffffffffff166001600086815260200190815260200160002060009054906101000a900473ffffffffffffffffffffffffffffffffffffffff1673ffffffffffffffffffffffffffffffffffffffff161461018d576040517f08c379a0000000000000000000000000000000000000000000000000000000008152600401610184906106b0565b60405180910390fd5b8260008086815260200190815260200160002060010160008282546101b291906106ff565b925050819055508160008086815260200190815260200160002060020160008282546101de91906106ff565b9250508190555080600080868152602001908152602001600020600301600082825461020a91906106ff565b92505081905550837fdf601dc9cab1949db7d829ded79c76070375083f98d23c3e5de99ff9fdab542a60008087815260200190815260200160002060010154600080888152602001908152602001600020600201546000808981526020019081526020016000206003015460405161028493929190610733565b60405180910390a250505050565b6000806000806000806000878152602001908152602001600020604051806080016040529081600082015481526020016001820154815260200160028201548152602001600382015481525050905080600001518160200151826040015183606001519450945094509450509193509193565b600073ffffffffffffffffffffffffffffffffffffffff166001600083815260200190815260200160002060009054906101000a900473ffffffffffffffffffffffffffffffffffffffff1673ffffffffffffffffffffffffffffffffffffffff16146103a7576040517f08c379a000000000000000000000000000000000000000000000000000000000815260040161039e906107b6565b60405180910390fd5b60405180608001604052808281526020016000815260200160008152602001600081525060008083815260200190815260200160002060008201518160000155602082015181600101556040820151816002015560608201518160030155905050336001600083815260200190815260200160002060006101000a81548173ffffffffffffffffffffffffffffffffffffffff021916908373ffffffffffffffffffffffffffffffffffffffff160217905550803373ffffffffffffffffffffffffffffffffffffffff167f324cb0062138d65997c86cd3012489ceb351d602f2f55c7408306e8040c79f3f60405160405180910390a350565b60016020528060005260406000206000915054906101000a900473ffffffffffffffffffffffffffffffffffffffff1681565b600080fd5b6000819050919050565b6104ec816104d9565b81146104f757600080fd5b50565b600081359050610509816104e3565b92915050565b60008060008060808587031215610529576105286104d4565b5b6000610537878288016104fa565b9450506020610548878288016104fa565b9350506040610559878288016104fa565b925050606061056a878288016104fa565b91505092959194509250565b60006020828403121561058c5761058b6104d4565b5b600061059a848285016104fa565b91505092915050565b6105ac816104d9565b82525050565b60006080820190506105c760008301876105a3565b6105d460208301866105a3565b6105e160408301856105a3565b6105ee60608301846105a3565b95945050505050565b600073ffffffffffffffffffffffffffffffffffffffff82169050919050565b6000610622826105f7565b9050919050565b61063281610617565b82525050565b600060208201905061064d6000830184610629565b92915050565b600082825260208201905092915050565b7f556e617574686f72697a6564207570646174652e000000000000000000000000600082015250565b600061069a601483610653565b91506106a582610664565b602082019050919050565b600060208201905081810360008301526106c98161068d565b9050919050565b7f4e487b7100000000000000000000000000000000000000000000000000000000600052601160045260246000fd5b600061070a826104d9565b9150610715836104d9565b925082820190508082111561072d5761072c6106d0565b5b92915050565b600060608201905061074860008301866105a3565b61075560208301856105a3565b61076260408301846105a3565b949350505050565b7f506c6179657220494420616c726561647920726567697374657265642e000000600082015250565b60006107a0601d83610653565b91506107ab8261076a565b602082019050919050565b600060208201905081810360008301526107cf81610793565b905091905056fea264697066735822122084b7b8924f049e460d36811a92a8666941ca31d667bc17ef5f0eccf3f3446b5564736f6c634300081b0033",
  "linkReferences": {},
  "deployedLinkReferences": {}
}